{
  "contractName": "Election",
  "abi": [
    {
      "inputs": [],
      "stateMutability": "nonpayable",
      "type": "constructor"
    },
    {
      "inputs": [],
      "name": "candidate",
      "outputs": [
        {
          "internalType": "string",
          "name": "",
          "type": "string"
        }
      ],
      "stateMutability": "view",
      "type": "function",
      "constant": true
    },
    {
      "inputs": [
        {
          "internalType": "uint256",
          "name": "",
          "type": "uint256"
        }
      ],
      "name": "candidates",
      "outputs": [
        {
          "internalType": "uint256",
          "name": "id",
          "type": "uint256"
        },
        {
          "internalType": "string",
          "name": "name",
          "type": "string"
        },
        {
          "internalType": "uint256",
          "name": "voteCount",
          "type": "uint256"
        }
      ],
      "stateMutability": "view",
      "type": "function",
      "constant": true
    },
    {
      "inputs": [],
      "name": "candidatesCount",
      "outputs": [
        {
          "internalType": "uint256",
          "name": "",
          "type": "uint256"
        }
      ],
      "stateMutability": "view",
      "type": "function",
      "constant": true
    }
  ],
  "bytecode": "0x608060405234801561001057600080fd5b506100556040518060400160405280600b81526020017f43616e646964617465203100000000000000000000000000000000000000000081525061009e60201b60201c565b6100996040518060400160405280600b81526020017f43616e646964617465203200000000000000000000000000000000000000000081525061009e60201b60201c565b6102a6565b600260008154809291906100b1906101ff565b919050555060405180606001604052806002548152602001828152602001600081525060016000600254815260200190815260200160002060008201518160000155602082015181600101908051906020019061010f929190610120565b506040820151816002015590505050565b82805461012c906101cd565b90600052602060002090601f01602090048101928261014e5760008555610195565b82601f1061016757805160ff1916838001178555610195565b82800160010185558215610195579182015b82811115610194578251825591602001919060010190610179565b5b5090506101a291906101a6565b5090565b5b808211156101bf5760008160009055506001016101a7565b5090565b6000819050919050565b600060028204905060018216806101e557607f821691505b602082108114156101f9576101f8610277565b5b50919050565b600061020a826101c3565b91507fffffffffffffffffffffffffffffffffffffffffffffffffffffffffffffffff82141561023d5761023c610248565b5b600182019050919050565b7f4e487b7100000000000000000000000000000000000000000000000000000000600052601160045260246000fd5b7f4e487b7100000000000000000000000000000000000000000000000000000000600052602260045260246000fd5b610413806102b56000396000f3fe608060405234801561001057600080fd5b50600436106100415760003560e01c80632d35a8a2146100465780633477ee2e146100645780636c8381f814610096575b600080fd5b61004e6100b4565b60405161005b91906102a2565b60405180910390f35b61007e6004803603810190610079919061020f565b6100ba565b60405161008d939291906102bd565b60405180910390f35b61009e61016c565b6040516100ab9190610280565b60405180910390f35b60025481565b60016020528060005260406000206000915090508060000154908060010180546100e390610354565b80601f016020809104026020016040519081016040528092919081815260200182805461010f90610354565b801561015c5780601f106101315761010080835404028352916020019161015c565b820191906000526020600020905b81548152906001019060200180831161013f57829003601f168201915b5050505050908060020154905083565b6000805461017990610354565b80601f01602080910402602001604051908101604052809291908181526020018280546101a590610354565b80156101f25780601f106101c7576101008083540402835291602001916101f2565b820191906000526020600020905b8154815290600101906020018083116101d557829003601f168201915b505050505081565b600081359050610209816103c6565b92915050565b60006020828403121561022157600080fd5b600061022f848285016101fa565b91505092915050565b6000610243826102fb565b61024d8185610306565b935061025d818560208601610321565b610266816103b5565b840191505092915050565b61027a81610317565b82525050565b6000602082019050818103600083015261029a8184610238565b905092915050565b60006020820190506102b76000830184610271565b92915050565b60006060820190506102d26000830186610271565b81810360208301526102e48185610238565b90506102f36040830184610271565b949350505050565b600081519050919050565b600082825260208201905092915050565b6000819050919050565b60005b8381101561033f578082015181840152602081019050610324565b8381111561034e576000848401525b50505050565b6000600282049050600182168061036c57607f821691505b602082108114156103805761037f610386565b5b50919050565b7f4e487b7100000000000000000000000000000000000000000000000000000000600052602260045260246000fd5b6000601f19601f8301169050919050565b6103cf81610317565b81146103da57600080fd5b5056fea2646970667358221220e1d0c3f935859b7ff573b1d30fc9f8aca881274803f3e8f36a2a2522286b232f64736f6c63430008000033",
  "immutableReferences": {},
  "source": "pragma solidity 0.8.0;\n\ncontract Election {\n    // Model a Candidate\n    string public candidate;\n    struct Candidate {\n        uint id;\n        string name;\n        uint voteCount;\n    }\n\n    constructor(){\n        addCandidate(\"Candidate 1\");\n        addCandidate(\"Candidate 2\");\n    }\n    \n    // Read/Write candidates; \n    mapping(uint => Candidate) public candidates;\n\n    // Store candidates count;\n\n    uint public candidatesCount;\n\n    function addCandidate (string memory _name) private {\n        candidatesCount++;\n        candidates[candidatesCount] = Candidate(candidatesCount,_name, 0);\n    }\n\n}",
  "sourcePath": "/home/fxx/Documents/Projects/dApp/eth-election/contracts/Election.sol",
  "compiler": {
    "name": "solc",
    "version": "0.8.0+commit.c7dfd78e.Emscripten.clang"
  },
  "schemaVersion": "3.4.4",
  "updatedAt": "2022-01-25T01:59:35.370Z",
  "networkType": "ethereum",
  "devdoc": {
    "kind": "dev",
    "methods": {},
    "version": 1
  },
  "userdoc": {
    "kind": "user",
    "methods": {},
    "version": 1
  }
}